:04000000BFEF81F0DD
:10EA560000000005800F800A001B801E00140011B4
:10EA660080338036003C00398028002D80278022A4
:10EA760000638066006C00698078007D8077807214
:10EA860000500055805F805A004B804E0044004184
:10EA960080C380C600CC00C980D800DD80D780D274
:10EAA60000F000F580FF80FA00EB80EE00E400E164
:10EAB60080A000A580AF80AA00BB80BE00B400B1D4
:10EAC60080938096009C00998088008D8087808244
:10EAD60000838186018C01898198019D81978192AD
:10EAE60001B001B581BF81BA01AB81AE01A401A11C
:10EAF60081E001E581EF81EA01FB81FE01F401F18C
:10EB060081D381D601DC01D981C801CD81C781C2FB
:10EB160001400145814F814A015B815E01540151EB
:10EB260081738176017C01798168016D81678162DB
:10EB360001238126012C01298138013D813781324B
:10EB460001100115811F811A010B810E01040101BB
:10EB560081038306030C03098318031D831783129D
:10EB660003300335833F833A032B832E032403218B
:10EB760083600365836F836A037B837E03740371FB
:10EB860083538356035C03598348034D834783426B
:10EB960003C003C583CF83CA03DB83DE03D403D15B
:10EBA60083F383F603FC03F983E803ED83E783E24B
:10EBB60003A383A603AC03A983B803BD83B783B2BB
:10EBC60003900395839F839A038B838E038403812B
:10EBD60083800285828F828A029B829E02940291A2
:10EBE60082B382B602BC02B982A802AD82A782A213
:10EBF60002E382E602EC02E982F802FD82F782F283
:10EC060002D002D582DF82DA02CB82CE02C402C1F2
:10EC160082438246024C02498258025D82578252E2
:10EC260002700275827F827A026B826E02640261D2
:10EC360082200225822F822A023B823E0234023142
:10EC460082138216021C02198208020D82078202B2
:10EC560002008040C020A060E0109050D030B0701C
:10EC6600F0088848C828A868E8189858D838B878A6
:10EC7600F8048444C424A464E4149454D434B474CA
:10EC8600F40C8C4CCC2CAC6CEC1C9C5CDC3CBC7C46
:10EC9600FC028242C222A262E2129252D232B272C4
:10ECA600F20A8A4ACA2AAA6AEA1A9A5ADA3ABA7A46
:10ECB600FA068646C626A666E6169656D636B6766A
:10ECC600F60E8E4ECE2EAE6EEE1E9E5EDE3EBE7EE6
:10ECD600FE018141C121A161E1119151D131B17191
:10ECE600F1098949C929A969E9199959D939B97916
:10ECF600F9058545C525A565E5159555D535B5753A
:10ED0600F50D8D4DCD2DAD6DED1D9D5DDD3DBD7DB5
:10ED1600FD038343C323A363E3139353D333B37333
:10ED2600F30B8B4BCB2BAB6BEB1B9B5BDB3BBB7BB5
:10ED3600FB078747C727A767E7179757D737B777D9
:10ED4600F70F8F4FCF2FAF6FEF1F9F5FDF3FBF7F55
:10ED5600FF600798040F0F3E0003030E0000100229
:10ED660000000000000000000040004040000000DD
:10ED7600000000000000000000000000000000008D
:10ED8600000000000000002000000000000000005D
:10ED96000000040000000000000000000000000069
:10EDA60000600400000300000000000000000000F6
:10EDB60000000000000004600000000000000000E9
:10EDC60000000000000000000019207EBFFEDAED02
:10EDD600000000000000000000000000000000002D
:10EDE600000000000000000000000000000000001D
:10EDF600E0E0E0E0E0E0E0E0E0E0C0400000E0E08D
:10EE0600E00000000000000000E7E7E7E7E7E700B2
:10EE160000000000000000000000000000000000EC
:10EE260000000000000E300E700C701C60FFF8FF32
:10EE3600F818E018E038C038C0FFF8FFF8318071E4
:10EE46008073807380618000000000000000000075
:10EE560000060006000F003FC07FE0F6E0E6E0E6B1
:10EE660060F600FE007F801FC007E006F0C670E671
:10EE760070E670F6F07FE03FC00F00060006000661
:10EE860000060000000000000000000078020044B8
:10EE96000600C60C00C60C00C61800C61000C63018
:10EEA600007C60000047C000C640018C60018C6099
:10EEB600030C60020C60060C600C06400C03800814
:10EEC600000000000000000000000000000000003C
:10EED600000000000F801FC038E038E038E01DC099
:10EEE6001F800F003F087F9CF3DCE1F8E0F8E0F8B4
:10EEF60071FE7FDE1F86000000000000000000009B
:10EF0600000000E0E0E0E0E0E000000000000000BB
:10EF16000000000000000000000000000C1838305F
:10EF2600707070E0E0E0E0E0E0E0E07070703038D3
:10EF3600180C000000C06070303838381C1C1C1CCF
:10EF46001C1C1C1C383838307060C0000000000CD7
:10EF5600000C000C00EDC07F800C001E0033002169
:10EF6600000000000000000000000000000000009B
:10EF7600000000000000000000000000000000008B
:10EF8600000000000000000E000E000E000E000E35
:10EF960000FFF0FFF0FFF00E000E000E000E000E58
:10EFA600000000000000000000000000000000005B
:10EFB600000000000000000000000000000000004B
:10EFC60060F0F03030E0C0000000000000000000FB
:10EFD60000000000FEFEFE00000000000000000031
:10EFE600000000000000000000000000000000001B
:10EFF6000000E0E0E000000000000000000C0C1C37
:10F006001818183830303070606060E0C0C00000FA
:10F016000000000000000000001F003FC070E0700C
:10F02600E0E070E070E070E070E070E070E070E0EA
:10F0360070E07070E070E03FC00F800000000000DC
:10F04600000000000000000003070F1F7FF7E7071E
:10F05600070707070707070707000000000000006B
:10F06600000000000F803FE078E070706070607014
:10F0760000F000E003C007800F001E003C0078008F
:10F086007FF0FFF07FF000000000000000000000AD
:10F096000000000000000F803FC071E070E060E0FB
:10F0A60000E001E00FC01FC000E000706070E0707B
:10F0B600F07070E03FC01F800000000000000000FC
:10F0C600000000000000000000E001E003E003E0B3
:10F0D60007E00EE01CE038E038E070E0E0E0FFF822
:10F0E600FFFC00E000E000E000E00000000000009F
:10F0F600000000000000000000003FE03FF03FE09D
:10F106007000700070007F807FE070E060700070BB
:10F116000070E070E07070E07FC01F8000000000AB
:10F126000000000000000000000000000F803FC04B
:10F1360038E070606060E000EF80FFC0F0E0E070F3
:10F14600E070E070E070707070E03FC00F8000000B
:10F156000000000000000000000000000000FFF0BA
:10F16600FFF000F001E001C00380078007000F00F8
:10F176000E000E001E001C001C001C001C001800C7
:10F186000000000000000000000000000000000079
:10F196001F803FC070E070E0606070E070E03FC0CC
:10F1A6003FC070E0E070E070E070E07070E07FE01B
:10F1B6001F800000000000000000000000000000AA
:10F1C60000001F003FC071E0E0E0E070E070E0701A
:10F1D600E07070F03FF01F700070606070E071C00A
:10F1E6003FC01F00000000000000000000000000FB
:10F1F600000000000000E0E0E0000000000000E089
:10F20600E0E000000000000000000000000000E058
:10F21600E0E0000000000000C0E0E06060C08000A8
:10F2260000000000000000000000001000F003F0E5
:10F236000FF07F80FC00F000FC007F800FE003F001
:10F2460000F00010000000000000000000000000B8
:10F2560000000000000000000000000000000000A8
:10F266000000FFF0FFF0FFF000000000FFF0FFF0ED
:10F27600FFF0000000000000000000000000000099
:10F2860000000000000000000000000000008000F8
:10F29600F000FC007F001FE003F000F003F01FE029
:10F2A600FF00FC00F00080000000000000000000ED
:10F2B6000000000000000000000000001F007FC0EA
:10F2C600F1C0E0E0E0E0C0E003C007C00F800E0040
:10F2D6001C001C00080000001C001C001C00000094
:10F2E6000000000000000000000000000000000018
:10F2F6000000FF0003FFC00F01E01C00703800385B
:10F3060030FB9861FF8C638F8CC7070CC7070CCE48
:10F31600070CCE071CCE0F18CE0E38CF1E7067FF17
:10F32600E063EF8030000E1C003C0F00F807FFE0A2
:10F3360000FF0000000000000003C003C007E00754
:10F34600E00EF00E700E701C781C383C3C3C3C7F86
:10F35600FE7FFE700EF00FE007E0070000000000E1
:10F366000000000000000000000000FFE0FFF8E0E1
:10F3760078E038E038E038E078FFF0FFF0E038E099
:10F386001CE01CE01CE01CE03CFFF87FF0000000E5
:10F396000000000000000000000000000007E01F61
:10F3A600F83FFC783C701EF00EE004E000E000E060
:10F3B60000E00CF00E701E783C3FFC1FF807E000E2
:10F3C600000000000000000000000000000000FF38
:10F3D600C0FFE0FFF0E078E038E01CE01CE01CE055
:10F3E6001CE01CE01CE03CE038E078FFF0FFF0FF9A
:10F3F600C000000000000000000000000000000047
:10F4060000FFF0FFF0E000E000E000E000E000FFB9
:10F41600F0FFF0E000E000E000E000E000FFF0FFB9
:10F42600F8FFF000000000000000000000000000EF
:10F43600000000FFE0FFF0E000E000E000E000E098
:10F4460000FFC0FFC0E000E000E000E000E000E0F8
:10F4560000E000E0000000000000000000000000E6
:10F46600000000000007F01FFC3C1E780E700FE045
:10F4760006E000E000E0FFE0FFE007E00770077845
:10F48600073C1F1FFE07F8000000000000000000F8
:10F4960000000000000000E01CE01CE01CE01CE096
:10F4A6001CE01CFFFCFFFCFFFCE01CE01CE01CE079
:10F4B6001CE01CE01CE01CE01C000000000000003A
:10F4C600000000000000E0E0E0E0E0E0E0E0E0E076
:10F4D600E0E0E0E0E0E0E000000000000000000006
:10F4E600000000E000E000E000E000E000E000E0F6
:10F4F60000E000E000E0E0E0E0E0F0E0F1E07FC006
:10F506003FC01F00000000000000000000000000D7
:10F5160000000000E038E078E0F8E1F0E3E0E7C062
:10F52600EF80FF80FFC0FBC0F1E0E0F0E0F0E078A4
:10F53600E03CE03CE01C0000000000000000000091
:10F54600000000000000E000E000E000E000E00055
:10F55600E000E000E000E000E000E000E000E000A5
:10F56600E000FFE0FFF0FFE0000000000000000008
:10F576000000000000000000F81FF81FFC3FFC3FE1
:10F58600FC3FEC37EE77EE77EE77E667E7E7E7E7FF
:10F59600E7E7E3C7E3C7E3C7E18700000000000031
:10F5A60000000000000000000000601CF01CF81CB9
:10F5B600F81CFC1CFE1CEE1CE71CE79CE39CE1DC33
:10F5C600E1FCE0FCE07CE07CE03CE01C00000000AC
:10F5D600000000000000000000000000000000071E
:10F5E600F0001FFC003FFE007C1F00700700F007C4
:10F5F60080E00380E00380E00380E00380E0038096
:10F60600F007807007007C1F003FFE001FFC00070C
:10F61600F0000000000000000000000000000000F4
:10F62600000000000000007FE0FFF0E078E038E036
:10F6360038E038E038E070FFF0FFC0E000E000E0BE
:10F6460000E000E000E000E0000000000000000034
:10F6560000000000000000000000000007F0001F8E
:10F66600FC003FFE007C1F00700700F00780E003EF
:10F6760080E00380E00380E00380E00380F1C78040
:10F6860070FF007C3F003FFE001FFF8007F3C000B5
:10F6960001C00000000000000000000000000000A3
:10F6A600000000007FF0FFF8E03CE01CE01CE01CDE
:10F6B600E03CFFF8FFE0E1E0E0F0E078E078E03CF5
:10F6C600E03CE01CE00C0000000000000000000030
:10F6D6000000000000001F807FE070F0E070E03066
:10F6E600F000FE007FC03FF007F00078C038E03839
:10F6F600E038F0707FE01FC000000000000000004E
:10F7060000000000000000007FFCFFFE7FFC03807D
:10F7160003800380038003800380038003800380CB
:10F726000380038003800380038000000000000044
:10F7360000000000000000000000E01CE01CE01CCF
:10F74600E01CE01CE01CE01CE01CE01CE01CE01CD3
:10F75600E01CF03C78787FF83FF00FC00000000016
:10F76600000000000000000000000000E00EE00EB7
:10F77600F01E701C781C783C38383C383C701C7085
:10F786001EF00EE00EE00FE007C007C00380000089
:10F796000000000000000000000000000000000063
:10F7A60000E07038E0F838E0F838F0F87870D87093
:10F7B60071DC7071DC7079DCF03B8EE03B8EE03BF7
:10F7C6008EE03B06E01F07C01F07C01F07C01E03D1
:10F7D600C00E0380000000000000000000000000D2
:10F7E6000000000000000000006030703870707883
:10F7F600F03CE01DC01FC00F800F800F801FC03D72
:10F80600E038E078F0F078E038E0380000000000FA
:10F816000000000000000000000000E018E038F0E2
:10F8260078787078F03DE01DC01FC00F8007000794
:10F836000007000700070007000700070000000098
:10F84600000000000000000000000000007FFC7FB8
:10F85600FC003C007C00F801F001E003E007C00F6B
:10F86600800F001E003C007C00F800FFFE7FFE00BB
:10F87600000000000000000000000000FCFCE0E0CA
:10F88600E0E0E0E0E0E0E0E0E0E0E0E0E0E0E0FC56
:10F896007C00000000E0E06060707030303838189E
:10F8A600181C1C0C0C0C0000000000000000FCFCE6
:10F8B6001C1C1C1C1C1C1C1C1C1C1C1C1C1C1C1C82
:10F8C6001CFCFC0000000000000007000F000F8079
:10F8D6001F801FC039C039C070E0F0F00000000082
:10F8E6000000000000000000000000000000000012
:10F8F6000000000000000000000000000000000002
:10F9060000000000000000000000000000000000F1
:10F9160000000000000000000000000000000000E1
:10F926000000FFF000000000000000E0701800007A
:10F9360000000000000000000000000000000000C1
:10F9460000000000000000000000000000000000B1
:10F95600001FC07FE070F0607001F03FF07E70E045
:10F9660070E070F1F07FF83E30000000000000000B
:10F97600000000000000000000E000E000E000E001
:10F9860000E000E780FFE0F8E0F0F0E070E070E013
:10F9960070E070F0F0F8E0FFC0E7800000000000C3
:10F9A6000000000000000000000000000000000051
:10F9B60000000000001F803FE070E0F070E020E0F3
:10F9C60000E000E020F07070F03FE01F80000000D3
:10F9D60000000000000000000000000000007000B1
:10F9E600700070007000701E707FF071F0F0F0E033
:10F9F60070E070E070E070F0F071F03FF01E7000A3
:10FA060000000000000000000000000000000000F0
:10FA16000000000000000000001F803FC070E0E012
:10FA2600F0E070FFF0FFE0E000E03070F03FE01F34
:10FA36008000000000000000000000000000000040
:10FA4600001F003F80380038003800FE00FF0038F5
:10FA560000380038003800380038003800380038E0
:10FA66000038000000000000000000000000000058
:10FA7600000000000000000000000000001E707F73
:10FA8600F070F0F0F0E070E070E070E070E0F070C0
:10FA9600F03FF01E704070E07070E07FE01F800065
:10FAA6000000000000E000E000E000E000E000EF01
:10FAB60080FFC0F1E0E0E0E0E0E0E0E0E0E0E0E090
:10FAC600E0E0E0E0E0E0E000000000000000000010
:10FAD60000000000E0E0E00000E0E0E0E0E0E0E060
:10FAE600E0E0E0E0E000000000000000001C1C1C5C
:10FAF60000001C1C1C1C1C1C1C1C1C1C1C1C1C1C78
:10FB06001CFCF8000000000000E000E000E000E05F
:10FB160000E000E1C0E3C0E780EF00FE00FF00F771
:10FB260000E380E3C0E1C0E0E0E0E00000000000A8
:10FB36000000000000000000E0E0E0E0E0E0E0E0BF
:10FB4600E0E0E0E0E0E0E0E0E000000000000000CF
:10FB5600000000000000000000000000000000009F
:10FB6600000000000000EF9F00FFFFC0F1E3C0E1CE
:10FB7600C1C0E1C1C0E1C1C0E1C1C0E1C1C0E1C1D4
:10FB8600C0E1C1C0E1C1C0E1C1C000000000000089
:10FB9600000000000000000000000000000000005F
:10FBA600000000000000000000EF80FFC0F1E0E070
:10FBB600E0E0E0E0E0E0E0E0E0E0E0E0E0E0E0E03F
:10FBC600E00000000000000000000000000000004F
:10FBD60000000000000000000000000F803FE078F9
:10FBE600F0F078E038E038E038E038F07878F03F48
:10FBF600E00F800000000000000000000000000090
:10FC060000000000000000000000000000E780FF88
:10FC1600C0F8E0F0F0E070E070E070E070F0F0F84E
:10FC2600E0FFC0E780E000E000E000E000E0000068
:10FC36000000000000000000000000000000001EA0
:10FC4600703FF071F0F0F0E070E070E070E070F09E
:10FC5600F071F03FF01E70007000700070007000D0
:10FC6600700000000000000000000000000000001E
:10FC760000EF00FF80F000E000E000E000E000E0C0
:10FC860000E000E000E000E00000000000000000EE
:10FC9600000000000000000000000000000000005E
:10FCA6000000003F007FC0E1C0E0C0F8007F801F79
:10FCB600C001E0E0E0F0E07FC03F8000000000000F
:10FCC6000000000000000000000000380038003886
:10FCD6000038003800FE00FF0038003800380038D1
:10FCE6000038003800380038003F801F0000000050
:10FCF60000000000000000000000000000000000FE
:10FD060000000000000000E0E0E0E0E0E0E0E0E00D
:10FD1600E0E0E0E0E0E0E0E0E0F1E07FE03CE000B1
:10FD260000000000000000000000000000000000CD
:10FD3600000000000000000000C060E0E0E0E071AC
:10FD4600C071C031803B803B801B001F000E000E3F
:10FD5600000000000000000000000000000000009D
:10FD6600000000000000000000000000000000008D
:10FD7600000000E0C1C0E1E1C0E1E1C071E38073D1
:10FD8600F3807333803B37003F3F003E1F001E1E4B
:10FD9600001E1E000C0C0000000000000000000009
:10FDA600000000000000000000000000000000004D
:10FDB600000000000000E0E0F1E07BC03F801F0093
:10FDC6001F003F803B807BC0F1E0E0E0C0E0000028
:10FDD600000000000000000000000000000000001D
:10FDE6000000000000000000E060E0E0E0E071C01C
:10FDF60071C071C03B803B801B001F001F000E00BE
:10FE06000E000E001C00FC00F800000000000000C0
:10FE1600000000000000000000007FE0FFE001E0BD
:10FE260003C007800F001E001C0038007800FFF09A
:10FE3600FFF00000000000000000000000000007C6
:10FE46000F1F1C1C1C1C1C1C78F8F8781C1C1C1C86
:10FE56001C1C1F0F07000000E0E0E0E0E0E0E0E02F
:10FE6600E0E0E0E0E0E0E0E0E0E0E0E0E0E000004C
:10FE760000E0F0F83838383838381E1F1F1E38387A
:10FE860038383838F8F0E0000000000000000000C4
:10FE960000000000000000000000007C10FFF0FFE2
:10FEA600F083E000000000000000000000000000F9
:10FEB6000000000000000000000800000319000810
:10FEC60032000D4B000C7D0013AF000FFA00032C1F
:10FED60001064501065E010A77010CA90104DB0152
:10FEE60007F401030D020626020C3F020871020CFC
:10FEF6008A020CBC020EEE020C20030C52030C8488
:10FF0600030CB6030CE803031A040333040C4C0475
:10FF16000C7E040CB0040BE204171405105F050EEA
:10FF260091050FC3050EF5050D27060C5906108B16
:10FF3600060EBD0603EF060B08070E3A070C6C0704
:10FF4600109E070ED0071102080D4D08127F080EED
:10FF5600CA080DFC080F2E090E60090F920915C478
:10FF6600090D0F0A0D410A0F730A06A50A06BE0AF5
:10FF760006D70A0CF00A0C220B05540B0D6D0B0C60
:10FF86009F0B0CD10B0C030C0C350C09670C0C9950
:10FF96000C0BCB0C03FD0C06160D0B2F0D03610D80
:10FFA600127A0D0BC50D0DF70D0C290E0C5B0E0903
:10FFB6008D0E0BBF0E09F10E0B230F0B550F12877B
:10FFC6000F0BD20F0B04100C3610086810038110AB
:10FFD600089A100CB31043414E2D434152206465DC
:10FFE6006D6F202120200057656C636F6D6520744E
:09FFF6006F202E2E2E20200000A9
:020000040001F9
:100000000A6E0A04D8A407EF80F009EF80F039EFF8
:1000100080F00AC005F00E01E69FE59F9A96919642
:100020000F0EE96F380E89EC81F02B0E89EC81F010
:100030002B0E89EC81F00C0E89EC81F0140E89EC0A
:1000400081F02A0E086E8E0EE82EFED7082EFCD701
:10005000060E89EC81F0090E096E1E0E086EE40E84
:10006000E82EFED7082EFCD7092EFAD700D01FEFB6
:1000700081F0020E0A18D8A440EF80F042EF80F021
:100080001DEF81F00504D8A448EF80F04AEF80F01E
:100090005DEF80F00E01E69FE59F9A9691960F0E18
:1000A000E96F380E89EC81F02B0E89EC81F02B0E74
:1000B00089EC81F0400E89EC81F00AC005F00E0158
:1000C000E69FE59F9A9691869A9491949A9291824E
:1000D000989E8F8E000EE96F000E996EE58F090EC7
:1000E000096E1E0E086EE40EE82EFED7082EFCD711
:1000F000092EFAD700D0010EF0EC81F0010EF0ECE1
:1001000081F0010EF0EC81F0E20EF0EC81F0230EB4
:10011000E7EC81F0020EE7EC81F0540EE7EC81F0A1
:10012000E00EF0EC81F0010EE7EC81F0050E086EB8
:10013000260EE82EFED7082EFCD700D0E00EF0ECFD
:1001400081F0030EE7EC81F0B00EF0EC81F0280EA8
:10015000E7EC81F0200EE7EC81F0030EE7EC81F094
:100160001F0EE7EC81F0010EE7EC81F0DF0EE7EC0B
:1001700081F0000EE7EC81F0F00EF0EC81F0030E60
:10018000E7EC81F03A0EF0EC81F0600EE7EC81F0E4
:10019000E60EF0EC81F0040EE7EC81F03A0EE7ECAD
:1001A00081F0600EE7EC81F0B40EF0EC81F0040E0B
:1001B000E7EC81F0200EE7EC81F0000EE7EC81F037
:1001C000300EE7EC81F0300EE7EC81F0000EE7EC4A
:1001D00081F0000EE7EC81F0000EE7EC81F0B60E46
:1001E000F0EC81F0020EE7EC81F00D0EE7EC81F00F
:1001F000000EE7EC81F0160EE7EC81F0040EE7EC60
:1002000081F0000EE7EC81F0000EE7EC81F0350E96
:10021000F0EC81F0000EE7EC81F0360EF0EC81F0AE
:10022000030EE7EC81F0290EF0EC81F0FF0E20ECDC
:1002300081F0D3EC81F01FEF81F0000E056E12000B
:10024000076E020E0518D8B428EF81F02AEF81F06E
:100250002CEF81F047EF81F0280EF0EC81F0BE0E1C
:10026000F0EC81F0060EE7EC81F00750E7EC81F04E
:10027000010EE7EC81F0FF0EE7EC81F0000EE7ECF9
:1002800081F0010EE7EC81F0290EF0EC81F0120014
:100290000940E842C00B800989EC81F007C0F6FFF5
:1002A00008C0F7FF000EF86E0800F5506BEC81F007
:1002B000074A082A07C0F6FF08C0F7FF000EF86ECD
:1002C0000800F5500009D8A468EF81F06AEF81F0CA
:1002D0004EEF81F01200066E0E01E58F06C0E7FEBC
:1002E00091860A0EE82EFED700D091960A0EE82ECF
:1002F000FED700D00638F00B0E01E76F91860A0E8C
:10030000E82EFED700D09196EA0EE82EFED700D058
:100310001200066E0E01E59F06C0E7FE91860A0EEA
:10032000E82EFED700D091960A0EE82EFED700D018
:100330000638F00B0E01E76F91860A0EE82EFED705
:1003400000D09196D50EE82EFED700F01200000ED8
:10035000656EF9EC81F0ED0E076EFF0E086E000E73
:10036000096E48EC81F0DC0E076EFF0E086E010E80
:10037000096E48EC81F0BBEF81F000EF00F002EE77
:1003800000F0C80EEE6AE806FDE101EE00F0C80ECE
:10039000EE6AE806FDE1056A046A036A026A016A18
:1003A0000001A7EF81F00E01E691E591F40E336FA5
:1003B000F286010E0F01556FF290F28CF28E0E0153
:1003C000E581280EC66E270EC86E9E961200066E38
:1003D0009196918406C0E7FE8F9E8F8E91861200C3
:1003E000066E9196919406C0E7FE8F9E8F8E918641
:0A03F0001200010E00EC80F0120074
:10FFF000A0F789FE23F0FFF7FBFFFFFC1DF0F8F3ED
:00000001FF
